:100000000C9490000C94AF000C94AF000C94AF00D3
:100010000C94AF000C94AF000C94AF000C94AF00A4
:100020000C94AF000C9495030C94AF000C94AF00AB
:100030000C94AF000C94F4050C94AF000C94AF003A
:100040000C94AF000C94AB060C94AF000C94AF0072
:100050000C94AF000C94AF000C94AF000C94AF0064
:100060000C94AF000C94AF000C94AF000C94AF0054
:100070000C94AF000C94AF000C94AF000C94AF0044
:100080000C94AF000C94AF000C94AF000C94AF0034
:100090000C94AF000C94AF000C94AF000C94AF0024
:1000A0000C94AF000C94AF000C94AF000C94AF0014
:1000B0000C94AF000C94AF000C94AF000C94AF0004
:1000C0000C94AF000C94AF000C94AF000C94AF00F4
:1000D0000C94AF000C94AF000C94AF000C94AF00E4
:1000E0000C94AF000C94AF000C94AF000C94AF00D4
:1000F0000C94AF000C94AF000C94AF000C94AF00C4
:100100000C94AF000C94AF000C94AF000C94AF00B3
:100110000C94AF000C94AF000C94AF000C94AF00A3
:1001200011241FBECFEFD1E4DEBFCDBF18E0A0E0A9
:10013000B2E0E4E3F6E100E00BBF02C007900D92ED
:10014000A833B107D9F71AE0A8E3B8E001C01D92BF
:10015000A134B107E1F70E94B1000C94180B0C9484
:100160000000CF93DF93CDB7DEB72C970FB6F8948E
:10017000DEBF0FBECDBF0E94B2040E9434050E94B4
:10018000F30481E00E940F030E94E3040E946505CE
:100190000E9424050E94CE070E94C8010E947E038F
:1001A000982F81E08927882319F00E94D30402C088
:1001B0000E94E3040E946B03982F81E08927882323
:1001C00019F00E94550502C00E9465050E9489022F
:1001D000823019F40E94140502C00E94240580E4B4
:1001E00096E0A0E0B0E08D839E83AF83B88701C026
:1001F00000008D819E81AF81B8859C01AD012150A9
:100200003109410951092D833E834F835887009757
:10021000A105B10569F789819A8101969A8389833D
:1002200060E080E00E941A07809100029091010234
:100230002A812F9329812F9322E032E0232F2F93BD
:1002400022E032E02F93292F2F938F930E9467088B
:100250000F900F900F900F900F900F9049815A813F
:10026000CA0196958795969587959C01A7E3BAE173
:100270000E9430080024880F991F001C880F991FC6
:10028000001C892F902D64EC79E0869F9001879F58
:10029000300D969F300D1124CA01821B930B0097DD
:1002A00009F075C061E080E00E941A078B819C8193
:1002B00001969C838B8380910002909101022C8196
:1002C0002F932B812F9322E132E0232F2F9322E1D2
:1002D00032E02F93292F2F938F930E9467080F905E
:1002E0000F900F900F900F900F9062E080E00E94AF
:1002F0001A070E94CF022AE030E0B9010E943F08AD
:10030000CB0189878985282F332727FD3095809158
:10031000000290910102432F4F932F932EE132E080
:10032000232F2F932EE132E02F93292F2F938F939A
:100330000E9467080F900F900F900F900F900F90F2
:1003400084E00E944D028A8763E080E00E941A07E1
:100350008A85282F332727FD3095809100029091C0
:100360000102432F4F932F932DE232E0232F2F933F
:100370002DE232E02F93292F2F938F930E9467084D
:100380000F900F900F900F900F900F9007CF06CF08
:10039000CF93DF93CDB7DEB780E390E020E330E08A
:1003A000F90120812B7FFC01208380E390E020E392
:1003B00030E0F90120812F7DFC01208380E390E073
:1003C00020E330E0F90120812F7EFC01208381E3CE
:1003D00090E021E330E0F90120812B7FFC012083B4
:1003E00081E390E021E330E0F90120812F7DFC01E1
:1003F000208381E390E021E330E0F90120812F7E2A
:10040000FC01208384E690E024E630E0F9012081BD
:100410002E7FFC0120838CE790E02CE730E0F9018F
:1004200020812068FC0120838CE790E02CE730E0FD
:10043000F90120812064FC0120838CE790E02CE707
:1004400030E0F90120812F7DFC0120838BE790E0D3
:100450002BE730E0F9012081277FFC0120838AE728
:1004600090E02AE730E0F90120812660FC0120833A
:100470008AE790E02AE730E0F90120812F7DFC0136
:1004800020838AE790E02AE730E0F90120812068A4
:10049000FC012083DF91CF910895CF93DF931F92CA
:1004A000CDB7DEB789838981883018F08FEF9FEF51
:1004B0002CC08CE790E02CE730E0F9012081207E11
:1004C000FC0120838CE790E02CE730E0F9013081DB
:1004D0002981232BFC0120838AE790E02AE730E082
:1004E000F90120812064FC01208300008AE790E06C
:1004F000FC018081882F90E0807499270097B1F7E4
:1005000088E790E0FC01808191810F90DF91CF918D
:100510000895CF93DF9300D0CDB7DEB785E00E947A
:100520004D029A83898389819A818639910538F0B1
:1005300089819A818B3F910510F480E02BC08981DD
:100540009A818E3521E0920740F089819A81833C1F
:1005500021E0920710F481E01DC089819A818E3ECE
:1005600022E0920740F089819A81833523E0920747
:1005700010F483E00FC089819A81863222E09207CD
:1005800040F089819A818B3822E0920710F482E052
:1005900001C084E00F900F90DF91CF910895CF9329
:1005A000DF93CDB7DEB728970FB6F894DEBF0FBE46
:1005B000CDBF82E00E944D029A83898388E090E05B
:1005C0009C838B834B815C812FE13EEF429FC00176
:1005D000439F900D529F900D11248056904F9E8303
:1005E0008D8349815A818B819C81489F9001499FCD
:1005F000300D589F300D11248D819E81820F931FE5
:100600002AE030E0B9010E943F08CB0128960FB6DE
:10061000F894DEBF0FBECDBFDF91CF910895CF9389
:10062000DF931F92CDB7DEB7898384E290E024E2A6
:1006300030E0F90120812F7BFC01208384E290E0EF
:1006400024E230E0F90120812F77FC01208385E24C
:1006500090E025E230E0F90120812064FC01208354
:1006600085E290E025E230E0F90120812068FC017C
:1006700020838981882381F08AE194E00E942A0600
:1006800088E690E028E630E0F90120812E7FFC0129
:1006900020830E944E061BC088E690E028E630E0EA
:1006A000F90120812160FC0120838BE690E02BE69C
:1006B00030E0F90120812064FC0120838BE690E08A
:1006C0002BE630E0F90120812068FC0120830F90A7
:1006D000DF91CF910895CF93DF931F92CDB7DEB70F
:1006E000198283E290E0FC018081882314F081E08C
:1006F000898389810F90DF91CF910895CF93DF9304
:100700001F92CDB7DEB7198283E290E0FC018081B1
:10071000882F90E080749927009711F481E08983F5
:1007200089810F90DF91CF9108951F920F920090D1
:100730005F000F92112400905B000F922F933F9364
:100740004F935F936F937F938F939F93AF93BF93D9
:10075000EF93FF93CF93DF93CDB7DEB70E946B0388
:10076000882399F080913A0890913B08009739F1DD
:100770008BE690E0FC01808188230CF580913A089B
:1007800090913B08FC0109951AC00E947E038823C2
:10079000B1F08091380890913908009781F08BE68C
:1007A00090E0FC018081882F90E080749927009769
:1007B00031F08091380890913908FC010995DF915A
:1007C000CF91FF91EF91BF91AF919F918F917F91C9
:1007D0006F915F914F913F912F910F9000925B002D
:1007E0000F9000925F000F901F901895CF93DF93AA
:1007F00000D0CDB7DEB79A83898389819A8190939F
:100800003908809338080F900F90DF91CF910895A9
:10081000CF93DF9300D0CDB7DEB79A8389838981E8
:100820009A8190933B0880933A080F900F90DF9144
:10083000CF910895CF93DF9300D000D0CDB7DEB72E
:1008400080913C088B831C8280913D08882F90E02A
:10085000825C974FFC0110820E946B03882389F011
:1008600080913D08882F90E020913D08222F30E0B4
:10087000225C374FF90120812160825C974FFC0197
:1008800020830E947E03882389F080913D08882F71
:1008900090E020913D08222F30E0225C374FF90193
:1008A00020812260825C974FFC01208380913D086B
:1008B0008F5F80933D0880913D08853011F4109240
:1008C0003D088FEF89831A820DC08A81882F90E0BE
:1008D000825C974FFC0180819981892389838A8179
:1008E0008F5F8A838A81853080F3898180933C0879
:1008F00090913C088B8189278C838C81882F90E094
:1009000081709927009781F00E946B03882361F022
:1009100080913A0890913B08009731F080913A0815
:1009200090913B08FC0109958C81882F90E08270A2
:100930009927009781F00E947E03882361F08091BF
:10094000380890913908009731F0809138089091DB
:100950003908FC0109950F900F900F900F90DF91CF
:10096000CF910895CF93DF93CDB7DEB783E390E0C7
:1009700023E330E0F90120812260FC012083DF9134
:10098000CF910895CF93DF93CDB7DEB784E390E0A6
:1009900024E330E0F901308122E02327FC012083A9
:1009A000DF91CF910895CF93DF93CDB7DEB784E386
:1009B00090E024E330E0F90120812D7FFC012083C9
:1009C000DF91CF910895CF93DF93CDB7DEB784E366
:1009D00090E024E330E0F90120812260FC012083D3
:1009E000DF91CF910895CF93DF93CDB7DEB780E34A
:1009F00090E020E330E0F90120812068FC012083B1
:100A0000DF91CF910895CF93DF93CDB7DEB781E328
:100A100090E021E330E0F901308120E82327FC0158
:100A20002083DF91CF910895CF93DF93CDB7DEB7C9
:100A300081E390E021E330E0F90120812F77FC0190
:100A40002083DF91CF910895CF93DF93CDB7DEB7A9
:100A500081E390E021E330E0F90120812068FC018E
:100A60002083DF91CF910895CF93DF93CDB7DEB789
:100A700080E390E020E330E0F90120812064FC0174
:100A80002083DF91CF910895CF93DF93CDB7DEB769
:100A900081E390E021E330E0F901308120E4232775
:100AA000FC012083DF91CF910895CF93DF93CDB7E1
:100AB000DEB781E390E021E330E0F90120812F7B74
:100AC000FC012083DF91CF910895CF93DF93CDB7C1
:100AD000DEB781E390E021E330E0F901208120647A
:100AE000FC012083DF91CF910895CF93DF9300D055
:100AF000CDB7DEB79A83898389819A819093440820
:100B0000809343080F900F90DF91CF910895CF937A
:100B1000DF93CDB7DEB780EB90E020EB30E0F9015A
:100B200020812260FC01208380EB90E020EB30E00C
:100B3000F90120812E7FFC01208381EB90E021EBE5
:100B400030E0F90120812E7FFC01208381EB90E0D1
:100B500021EB30E0F90120812D7FFC01208381EB26
:100B600090E021EB30E0F90120812460FC0120833A
:100B700080E790E020E730E0F90120812260FC016D
:100B8000208387E390E027E330E0F90120812D7F87
:100B9000FC01208383EB90E029EFFC012083DF91AF
:100BA000CF910895CF93DF93CDB7DEB781EB90E07F
:100BB00021EB30E0F90120812E7FFC01208381EBC5
:100BC00090E021EB30E0F90120812D7FFC012083B2
:100BD00081EB90E021EB30E0F90120812B7FFC01DB
:100BE0002083DF91CF9108951F920F9200905F00B4
:100BF0000F92112400905B000F922F933F934F931D
:100C00005F936F937F938F939F93AF93BF93EF9374
:100C1000FF93CF93DF93CDB7DEB7809143089091D8
:100C20004408FC010995DF91CF91FF91EF91BF91AD
:100C3000AF919F918F917F916F915F914F913F9174
:100C40002F910F9000925B000F9000925F000F9029
:100C50001F901895CF93DF9300D0CDB7DEB79A835E
:100C6000898389819A8190934608809345080F90E3
:100C70000F90DF91CF910895CF93DF9300D0CDB740
:100C8000DEB79A83898389819A81909348088093FB
:100C900047080F900F90DF91CF910895CF93DF9386
:100CA000CDB7DEB781E890E021E830E0F90120819E
:100CB0002860FC01208381E890E021E830E0F90120
:100CC00020812160FC01208381E890E021E830E070
:100CD000F90120812260FC0120838FE690E02FE65D
:100CE00030E0F90120812260FC01208386E390E05E
:100CF00026E330E0F90120812260FC01208388E8AE
:100D000090E021EE34E0FC0131832083DF91CF912C
:100D10000895CF93DF93CDB7DEB781E890E021E867
:100D200030E0F9012081277FFC01208381E890E0F9
:100D300021E830E0F90120812E7FFC01208381E849
:100D400090E021E830E0F90120812D7FFC01208333
:100D5000DF91CF9108951F920F9200905F000F9244
:100D6000112400905B000F922F933F934F935F935A
:100D70006F937F938F939F93AF93BF93EF93FF9363
:100D8000CF93DF93CDB7DEB78091450890914608A9
:100D9000FC0109958091470890914808FC0109954C
:100DA000DF91CF91FF91EF91BF91AF919F918F9183
:100DB0007F916F915F914F913F912F910F90009292
:100DC0005B000F9000925F000F901F9018950E949B
:100DD000260887FDFCCF08951F93CF93DF93D82F6C
:100DE000C62F142F6A3710F5843000F56D3340F0AC
:100DF00081E00E941D080E94E70683EC8C0F06C06C
:100E000080E00E941D080E94E7068C2F0E941308B4
:100E10000E94E7068D2F886B0E9413080E94E70648
:100E2000812FDF91CF911F910C940808DF91CF9112
:100E30001F9108958093320A6093310A08950F93A9
:100E40001F93CF93DF939091310A8A3031F410923F
:100E5000320A9F5F9093310A2DC02091320A2431CB
:100E600029F41092320A9F5F9093310A9091310ACF
:100E7000943000F596E0899F80011124C0E0D0E015
:100E8000095C1D4FF801EC0FFD1F8091320A682F9D
:100E9000660F680F660F6C0F40818091310A0E94C7
:100EA000EC062196C630D10569F78091320A8F5F32
:100EB0008093320ADF91CF911F910F9108950E9484
:100EC0001F0780E090E00895982F96959695969547
:100ED000943008F03FC06A37E8F58770A92FB0E07A
:100EE000262F30E04423A1F04AE74A9FF0014B9FB0
:100EF000F00D1124E20FF31FE75BF74F41E050E0E4
:100F000001C0440F8A95EAF78081842B808314C046
:100F10004AE74A9FF0014B9FF00D1124E20FF31FA7
:100F2000E75BF74F41E050E001C0440F8A95EAF7D4
:100F300040958081482340838AE78A9FF0018B9FF8
:100F4000F00D1124E20FF31FE75BF74F4081892F6B
:100F50000C94EC060895FF920F931F93CF93DF93A9
:100F600009E418E0F12CC0E0D0E040E06C2F8F2DB8
:100F70000E94EC06F801EC0FFD1F10822196CA3783
:100F8000D10599F7F39406581F4F84E0F812EBCF80
:100F9000DF91CF911F910F91FF9008950E9401085A
:100FA00080E00E941D080E94E70682EE0E9413085E
:100FB0000E94E7068FEA0E94130881E00E941D0844
:100FC0000E94E70682EE0E9413080E94E7068FEA5D
:100FD0000E9413080E94AB071092320A1092310A45
:100FE0008EE0E3E3FAE0DF011D928A95E9F78FE5F1
:100FF00097E090933C0A80933B0A82E08093360A04
:101000000895549A559A5D9A579A5F9A569A0895F8
:101010005E9A9FEF9DB98EB95D98000000000000B8
:101020005D9A5E9808955E989FEF9DB98EB95D9820
:101030000000000000005D9A08952BB130E1839F0D
:10104000C00111242F7E282B2BB908955E981DB85E
:101050001EB85F980000000000008CB15F9A0895F0
:10106000A29FB001B39FC001A39F700D811D1124E9
:10107000911DB29F700D811D1124911D089597FB44
:10108000072E16F4009407D077FD09D00E9453086C
:1010900007FC05D03EF4909581959F4F089570957B
:1010A00061957F4F0895AA1BBB1B51E107C0AA1F82
:1010B000BB1FA617B70710F0A61BB70B881F991FF9
:1010C0005A95A9F780959095BC01CD010895CF93CD
:1010D000DF93CDB7DEB7AE01475F5F4F6F81788595
:1010E0008D819E810E947708DF91CF9108952F9284
:1010F0003F924F925F926F927F928F929F92AF92A8
:10110000BF92CF92DF92EF92FF920F931F93CF93F4
:10111000DF93CDB7DEB72C970FB6F894DEBF0FBEC6
:10112000CDBF7C016B018A01FC011782168283818D
:1011300081FFBDC1CE0101964C01F7019381F601FB
:1011400093FD859193FF81916F01882309F4ABC1D1
:10115000853239F493FD859193FF81916F0185323A
:1011600029F4B70190E00E94880AE7CF512C312C76
:1011700020E02032A0F48B3269F030F4803259F054
:10118000833269F420612CC08D3239F0803339F418
:10119000216026C02260246023C0286021C027FD72
:1011A00027C030ED380F3A3078F426FF06C0FAE059
:1011B0005F9E300D1124532E13C08AE0389E300DEF
:1011C0001124332E20620CC08E3221F426FD6BC117
:1011D000206406C08C3611F4206802C0883641F4C1
:1011E000F60193FD859193FF81916F018111C1CF2C
:1011F000982F9F7D9554933028F40C5F1F4FFFE389
:10120000F9830DC0833631F0833771F0833509F0EF
:101210005BC022C0F801808189830E5F1F4F442488
:101220004394512C540115C03801F2E06F0E711C2B
:10123000F801A080B18026FF03C0652D70E002C0D8
:101240006FEF7FEFC5012C870E947D0A2C0183017F
:101250002C852F77222E17C03801F2E06F0E711CFB
:10126000F801A080B18026FF03C0652D70E002C0A8
:101270006FEF7FEFC5012C870E94720A2C012C852D
:101280002068222E830123FC1BC0832D90E048168A
:101290005906B0F4B70180E290E00E94880A3A94BF
:1012A000F4CFF50127FC859127FE81915F01B701FD
:1012B00090E00E94880A31103A94F1E04F1A5108E8
:1012C0004114510471F7E5C0843611F0893639F5BF
:1012D000F80127FF07C060817181828193810C5FD3
:1012E0001F4F08C060817181882777FD8095982FF6
:1012F0000E5F1F4F2F76B22E97FF09C090958095F5
:10130000709561957F4F8F4F9F4F2068B22E2AE0D6
:1013100030E0A4010E94BA0AA82EA81844C085375C
:1013200029F42F7EB22E2AE030E025C0F22FF97F7B
:10133000BF2E8F36C1F018F4883579F0B4C08037ED
:1013400019F0883721F0AFC02F2F2061B22EB4FEE4
:101350000DC08B2D8460B82E09C024FF0AC09F2FBA
:101360009660B92E06C028E030E005C020E130E0EC
:1013700002C020E132E0F801B7FE07C06081718150
:10138000828193810C5F1F4F06C06081718180E074
:1013900090E00E5F1F4FA4010E94BA0AA82EA81861
:1013A000FB2DFF77BF2EB6FE0BC02B2D2E7FA51475
:1013B00050F4B4FE0AC0B2FC08C02B2D2E7E05C02E
:1013C0007A2C2B2D03C07A2C01C0752C24FF0DC064
:1013D000FE01EA0DF11D8081803311F4297E09C0E0
:1013E00022FF06C07394739404C0822F867809F09C
:1013F000739423FD13C020FF06C05A2C731418F4F5
:10140000530C5718732C731468F4B70180E290E002
:101410002C870E94880A73942C85F5CF731410F4DE
:10142000371801C0312C24FF12C0B70180E390E0CF
:101430002C870E94880A2C8522FF17C021FF03C039
:1014400088E590E002C088E790E0B7010CC0822FE9
:10145000867859F021FD02C080E201C08BE227FDB1
:101460008DE2B70190E00E94880AA51438F4B70114
:1014700080E390E00E94880A5A94F7CFAA94F4017E
:10148000EA0DF11D8081B70190E00E94880AA11049
:10149000F5CF332009F451CEB70180E290E00E94ED
:1014A000880A3A94F6CFF7018681978102C08FEFC0
:1014B0009FEF2C960FB6F894DEBF0FBECDBFDF9125
:1014C000CF911F910F91FF90EF90DF90CF90BF9041
:1014D000AF909F908F907F906F905F904F903F90D4
:1014E0002F900895FC010590615070400110D8F7CD
:1014F000809590958E0F9F1F0895FC01615070405C
:1015000001900110D8F7809590958E0F9F1F089538
:101510000F931F93CF93DF93182F092FEB018B812C
:1015200081FD03C08FEF9FEF20C082FF10C04E816E
:101530005F812C813D81421753077CF4E881F9815A
:101540009F012F5F3F4F39832883108306C0E885B2
:10155000F985812F0995892B29F72E813F812F5FEE
:101560003F4F3F832E83812F902FDF91CF911F918B
:101570000F910895FA01AA27283051F1203181F105
:10158000E8946F936E7F6E5F7F4F8F4F9F4FAF4F8B
:10159000B1E03ED0B4E03CD0670F781F891F9A1F9E
:1015A000A11D680F791F8A1F911DA11D6A0F711D52
:1015B000811D911DA11D20D009F468943F912AE05E
:1015C000269F11243019305D3193DEF6CF01089546
:1015D000462F4770405D4193B3E00FD0C9F7F6CF77
:1015E000462F4F70405D4A3318F0495D31FD40523F
:1015F000419302D0A9F7EACFB4E0A69597958795D5
:1016000077956795BA95C9F70097610571050895B3
:101610009B01AC010A2E069457954795379527955F
:10162000BA95C9F7620F731F841F951FA01D0895F7
:04163000F894FFCF5C
:10163400330A5345434F4E4453286D7329202534B0
:101644007500434F554E544552202534750054457A
:101654004D5052415455524520253475004C49474C
:1016640048542025347500000000000000003E4569
:1016740051453E003E6B6F6B3E001C3E7C3E1C00A1
:10168400183C7E3C180030367F363000185C7E5C97
:10169400180000000000000000000000000000002E
:1016A4000000000000000000000030484A360E0030
:1016B400062979290600000000000000607E0A3532
:1016C4003F002A1C361C2A00007F3E1C0800081C10
:1016D4003E7F000014367F361400005F005F000078
:1016E40006097F017F00224D555922006060606029
:1016F400000014B6FFB6140004067F060400103080
:101704007F30100008083E1C0800081C3E08080032
:10171400784040404000083E083E0800303C3F3CD2
:101724003000030F3F0F030000000000000000061C
:101734005F060000070300070300247E247E2400C4
:10174400242B6A1200006313086463003649562090
:101754005000000703000000003E4100000000416B
:101764003E000000083E1C3E080008083E08080031
:1017740000E060000000080808080800006060003D
:1017840000002010080402003E5149453E0000427A
:101794007F400000625149494600224949493600C8
:1017A4001814127F10002F49494931003C4A494915
:1017B40030000171090503003649494936000649DC
:1017C40049291E00006C6C00000000EC6C00000055
:1017D400081422410000242424242400004122145B
:1017E40008000201590906003E415D551E007E11A4
:1017F40011117E007F49494936003E414141220092
:101804007F4141413E007F49494941007F0909091F
:1018140001003E4149497A007F0808087F000041E1
:101824007F410000304040403F007F0814224100C7
:101834007F40404040007F0204027F007F02040892
:101844007F003E4141413E007F09090906003E41B7
:1018540051215E007F090919660026494949320071
:1018640001017F0101003F4040403F001F20402014
:101874001F003F403C403F00631408146300070806
:1018840070080700714945430000007F4141000092
:101894000204081020000041417F000004020102FC
:1018A40004808080808080000003070000002054B2
:1018B400545478007F444444380038444444280055
:1018C400384444447F00385454540800087E0909BD
:1018D400000018A4A4A47C007F0404780000000085
:1018E4007D4000004080847D00007F10284400007B
:1018F40000007F4000007C04180478007C04047815
:101904000000384444443800FC444444380038441B
:101914004444FC004478440408000854545420000F
:10192400043E442400003C40207C00001C20402055
:101934001C003C6030603C006C10106C00009CA0EB
:10194400603C00006454544C0000083E41410000D7
:101954000000770000000041413E0800020102013E
:1019640000003C2623263C001EA1E12112003D403C
:10197400207D0000385454550900205555557800F1
:101984002055545578002055555478002057555704
:1019940078001CA2E2221400385555550800385529
:1019A4005455080038555554080000017C41000086
:1019B40000017D41000000017C40000070292429C1
:1019C4007000782F252F78007C54545545003454EA
:1019D4007C5458007E097F49490038454539000048
:1019E4003845443900003945443800003C41217DE4
:1019F40000003D41207C00009CA1603D00003D4270
:101A0400423D00003C41403D00807068583804006D
:101A1400483E494962007E615D433F002214081438
:101A2400220040887E0902002054555578000000A9
:101A34007D4100003844453900003C40217D0000D0
:101A44007A090A7100007A11227900000855555567
:101A54005E004E51514E000030484D40203E415DE5
:101A64004B553E04040404041C0017084C6A50003F
:101A74001708342A780000307D300000081400086C
:101A840014001408001408441144114411AA55AA5E
:101A940055AA55BBEEBBEEBBEE000000FF000008EC
:101AA4000808FF00000070282529700070292529E6
:101AB400700070292528703E415D55413E0AFB00A7
:101AC400FF000000FF00FF00000AFA02FE00000A07
:101AD4000B080F000000182466240000292A7C2A21
:101AE40029080808F800000000000F080808080882
:101AF4000F0808080808F80808000000FF0808088C
:101B04000808080808080808FF0808002056555661
:101B14007900702A252A71000F080B0A0A00FE02B8
:101B2400FA0A0A0A0B080B0A0A0AFA02FA0A0A0053
:101B3400FF00FB0A0A0A0A0A0A0A0A0AFB00FB0A4D
:101B44000A005D2222225D00225559300000087FE0
:101B540049413E007C55555544007C55545544003C
:101B64007C555554440000000700000000447D45A6
:101B7400000000457D45000000457C45000808083C
:101B84000F0000000000F80808FFFFFFFFFFFFF050
:101B9400F0F0F0F0F00000007700000000457D4414
:101BA400000F0F0F0F0F0F003C42433D0000FE4A91
:101BB4004A3400003C43433D00003D43423C0000A6
:101BC40032494A3100003A4546390000FC20201CC5
:101BD4000000FEAA28100000FFA5241800003C40C5
:101BE400413D00003C41413D00003D41403C00007E
:101BF4009CA0613D00000408710904000002020277
:101C0400000000070300000000080808000000248A
:101C14002E240000242424242405170A342A7800BE
:101C240006097F017F00224D5559220008082A0821
:101C3400080000081818000006090906000000083A
:101C440000080000000800000000020F000000006F
:101C5400090F05000000090D0A0000003C3C3C3C53
:081C6400000000000000000078
:00000001FF
