:100000000C9490000C94AF000C94AF000C94AF00D3
:100010000C94AF000C94AF000C94AF000C94AF00A4
:100020000C94AF000C94AF000C94AF000C94AF0094
:100030000C94AF000C94AF000C94AF000C94AF0084
:100040000C94AF000C94AF000C94AF000C94AF0074
:100050000C94AF000C94AF000C94AF000C94AF0064
:100060000C94AF000C94AF000C94AF000C94AF0054
:100070000C94AF000C94AF000C94AF000C94AF0044
:100080000C94AF000C94AF000C94AF000C94AF0034
:100090000C94AF000C94AF000C94AF000C94AF0024
:1000A0000C94AF000C94AF000C94AF000C94AF0014
:1000B0000C94AF000C94AF000C94AF000C94AF0004
:1000C0000C94AF000C94AF000C94AF000C94AF00F4
:1000D0000C94AF000C94AF000C94AF000C94AF00E4
:1000E0000C94AF000C94AF000C94AF000C94AF00D4
:1000F0000C94AF000C94AF000C94AF000C94AF00C4
:100100000C94AF000C94AF000C94AF000C94AF00B3
:100110000C94AF000C94AF000C94AF000C94AF00A3
:1001200011241FBECFEFD1E4DEBFCDBF18E0A0E0A9
:10013000B2E0E2E5F3E100E00BBF02C007900D92F0
:10014000A232B107D9F71AE0A2E2B8E001C01D92CD
:10015000A932B107E1F70E94B1000C94A7090C94F1
:100160000000CF93DF93CDB7DEB7E8970FB6F894D2
:10017000DEBF0FBECDBF0E9424030E94A6030E94D3
:10018000650360E071EE80E090E00E9430050E941F
:10019000CE0480910202909103029C0146E050E05F
:1001A00061E070E084E092E00E94C4068091000269
:1001B000909101029C0145E050E061E070E08BE02D
:1001C00092E00E94C4060E94AB040E94C70360E054
:1001D00080E00E941A0481E192E00E94E40280E043
:1001E00090E4ACE9B5E489839A83AB83BC8320E0D7
:1001F00030E04AE755E469817A818B819C810E94D5
:100200002906DC01CB018D839E83AF83B88720E074
:1002100030E040E85FE36D817E818F8198850E94A8
:10022000A80588232CF481E090E09A8789873FC055
:1002300020E03FEF4FE757E46D817E818F81988505
:100240000E94250618164CF520E030E040E251E40B
:1002500069817A818B819C810E942906DC01CB0116
:10026000BC01CD010E94AC05DC01CB019A878987D6
:100270000FC080E991E09C878B878B859C850197D7
:10028000F1F79C878B8789859A8501979A8789875B
:1002900089859A85009769F714C06D817E818F8169
:1002A00098850E94AC05DC01CB019A8789878985F6
:1002B0009A859E878D878D859E850197F1F79E870C
:1002C0008D870E94D7030E94AB040E94860360E0E2
:1002D00080E00E941A0484E192E00E94E40280E03F
:1002E00090E0AAEFB3E48F87988BA98BBA8B20E0BC
:1002F00030E04AE755E46F85788989899A890E94B8
:100300002906DC01CB018B8B9C8BAD8BBE8B20E057
:1003100030E040E85FE36B897C898D899E890E948B
:10032000A80588232CF481E090E0988F8F8B3FC044
:1003300020E03FEF4FE757E46B897C898D899E89E8
:100340000E94250618164CF520E030E040E251E40A
:100350006F85788989899A890E942906DC01CB01F9
:10036000BC01CD010E94AC05DC01CB01988F8F8BC5
:100370000FC080E991E09A8F898F898D9A8D0197BE
:10038000F1F79A8F898F8F89988D0197988F8F8B2E
:100390008F89988D009769F714C06B897C898D8946
:1003A0009E890E94AC05DC01CB01988F8F8B8F89D1
:1003B000988D9C8F8B8F8B8D9C8D0197F1F79C8FE7
:1003C0008B8F0E9496030E9445030E94AB0460E05D
:1003D00080E00E941A0489E192E00E94E40280E039
:1003E00090E0AAEFB4E48D8F9E8FAF8FB8A320E08A
:1003F00030E04AE755E46D8D7E8D8F8D98A10E9487
:100400002906DC01CB0189A39AA3ABA3BCA320E0FE
:1004100030E040E85FE369A17AA18BA19CA10E9432
:10042000A80588232CF481E090E09EA38DA33FC013
:1004300020E03FEF4FE757E469A17AA18BA19CA18F
:100440000E94250618164CF520E030E040E251E409
:100450006D8D7E8D8F8D98A10E942906DC01CB01C8
:10046000BC01CD010E94AC05DC01CB019EA38DA394
:100470000FC080E991E098A78FA38FA198A501975D
:10048000F1F798A78FA38DA19EA101979EA38DA39D
:100490008DA19EA1009769F714C069A17AA18BA1D3
:1004A0009CA10E94AC05DC01CB019EA38DA38DA174
:1004B0009EA19AA789A789A59AA50197F1F79AA75E
:1004C00089A70E9455030E9486030E94AB0460E046
:1004D00080E00E941A0484E192E00E94E40280E03D
:1004E00090E0A6E9B3E48BA79CA7ADA7BEA720E048
:1004F00030E04AE755E46BA57CA58DA59EA50E943A
:100500002906DC01CB018FA798ABA9ABBAAB20E0E1
:1005100030E040E85FE36FA578A989A99AA90E9415
:10052000A80588232CF481E090E09CAB8BAB3FC006
:1005300020E03FEF4FE757E46FA578A989A99AA972
:100540000E94250618164CF520E030E040E251E408
:100550006BA57CA58DA59EA50E942906DC01CB017B
:10056000BC01CD010E94AC05DC01CB019CAB8BAB87
:100570000FC080E991E09EAB8DAB8DA99EA901973C
:10058000F1F79EAB8DAB8BA99CA901979CAB8BAB74
:100590008BA99CA9009769F714C06FA578A989A9B0
:1005A0009AA90E94AC05DC01CB019CAB8BAB8BA95B
:1005B0009CA998AF8FAB8FA998AD0197F1F798AF31
:1005C0008FAB0E949603FFCDCF93DF9300D0CDB7C2
:1005D000DEB79A83898380910202909103022A8177
:1005E0002F9329812F932EE132E0232F2F932EE199
:1005F00032E02F93292F2F938F930E94B4060F90F0
:100600000F900F900F900F900F908091000290919B
:1006100001022A812F9329812F932EE132E0232F8B
:100620002F932EE132E02F93292F2F938F930E9447
:10063000B4060F900F900F900F900F900F900F90A7
:100640000F90DF91CF910895CF93DF93CDB7DEB7B1
:1006500083E390E023E330E0F90120812260FC0194
:100660002083DF91CF910895CF93DF93CDB7DEB78D
:1006700084E390E024E330E0F901308122E0232795
:10068000FC012083DF91CF910895CF93DF93CDB705
:10069000DEB784E390E024E330E0F90120812D7F90
:1006A000FC012083DF91CF910895CF93DF93CDB7E5
:1006B000DEB784E390E024E330E0F901208122609A
:1006C000FC012083DF91CF910895CF93DF93CDB7C5
:1006D000DEB780E390E020E330E0F901208120687C
:1006E000FC012083DF91CF910895CF93DF93CDB7A5
:1006F000DEB781E390E021E330E0F901308120E8CA
:100700002327FC012083DF91CF910895CF93DF93BE
:10071000CDB7DEB781E390E021E330E0F90120813D
:100720002F77FC012083DF91CF910895CF93DF9342
:10073000CDB7DEB781E390E021E330E0F90120811D
:100740002068FC012083DF91CF910895CF93DF9340
:10075000CDB7DEB780E390E020E330E0F9012081FF
:100760002064FC012083DF91CF910895CF93DF9324
:10077000CDB7DEB781E390E021E330E0F9013081CD
:1007800020E42327FC012083DF91CF910895CF93AC
:10079000DF93CDB7DEB781E390E021E330E0F901EC
:1007A00020812F7BFC012083DF91CF910895CF938F
:1007B000DF93CDB7DEB781E390E021E330E0F901CC
:1007C00020812064FC012083DF91CF9108950E9455
:1007D000260587FDFCCF08951F93CF93DF93D82F75
:1007E000C62F142F6A3710F5843000F56D3340F0B2
:1007F00081E00E941D050E94E70383EC8C0F06C078
:1008000080E00E941D050E94E7038C2F0E941305C3
:100810000E94E7038D2F886B0E9413050E94E70357
:10082000812FDF91CF911F910C940805DF91CF911B
:100830001F91089580930B0A60930A0A08950F93FD
:100840001F93CF93DF9390910A0A8A3031F410926C
:100850000B0A9F5F90930A0A2DC020910B0A243146
:1008600029F410920B0A9F5F90930A0A90910A0A4A
:10087000943000F596E0899F80011124C0E0D0E01B
:100880000E5D1D4FF801EC0FFD1F80910B0A682FC4
:10089000660F680F660F6C0F408180910A0A0E94F4
:1008A000EC032196C630D10569F780910B0A8F5F62
:1008B00080930B0ADF91CF911F910F9108950E94B1
:1008C0001F0480E090E00895982F96959695969550
:1008D000943008F03FC06A37E8F58770A92FB0E080
:1008E000262F30E04423A1F04AE74A9FF0014B9FB6
:1008F000F00D1124E20FF31FEE5DF74F41E050E0E1
:1009000001C0440F8A95EAF78081842B808314C04C
:100910004AE74A9FF0014B9FF00D1124E20FF31FAD
:10092000EE5DF74F41E050E001C0440F8A95EAF7D1
:1009300040958081482340838AE78A9FF0018B9FFE
:10094000F00D1124E20FF31FEE5DF74F4081892F68
:100950000C94EC030895FF920F931F93CF93DF93B2
:1009600002E218E0F12CC0E0D0E040E06C2F8F2DC7
:100970000E94EC03F801EC0FFD1F10822196CA378C
:10098000D10599F7F39406581F4F84E0F812EBCF86
:10099000DF91CF911F910F91FF9008950E94010563
:1009A00080E00E941D050E94E70382EE0E9413056D
:1009B0000E94E7038FEA0E94130581E00E941D0553
:1009C0000E94E70382EE0E9413050E94E7038FEA6C
:1009D0000E9413050E94AB0410920B0A10920A0A9F
:1009E0008EE0ECE0FAE0DF011D928A95E9F78FE5F1
:1009F00094E09093150A8093140A82E080930F0A82
:100A00000895549A559A5D9A579A5F9A569A0895FE
:100A10005E9A9FEF9DB98EB95D98000000000000BE
:100A20005D9A5E9808955E989FEF9DB98EB95D9826
:100A30000000000000005D9A08952BB130E1839F13
:100A4000C00111242F7E282B2BB908955E981DB864
:100A50001EB85F980000000000008CB15F9A0895F6
:100A60000F931F938B019C018091280A811138C03C
:100A700081E08093280AC901B801775F824C9F4FBB
:100A800042E0660F771F881F991F4A95D1F7A90189
:100A90009801E3E0220F331F441F551FEA95D1F759
:100AA0000E948605215031093093CD002093CC005F
:100AB00022E02093C80086E08093CA0088E18093FA
:100AC000C9008EE0EAE1FAE0DF011D928A95E9F7BC
:100AD00081E895E09093230A8093220A20931D0ACF
:100AE0001F910F9108958091C80087FFFCCF8091DE
:100AF000CE0008959091C80095FFFCCF8093CE0062
:100B000008950E947A0580E090E00895A1E21A2EEF
:100B1000AA1BBB1BFD010DC0AA1FBB1FEE1FFF1FA1
:100B2000A217B307E407F50720F0A21BB30BE40BF1
:100B3000F50B661F771F881F991F1A9469F7609538
:100B40007095809590959B01AC01BD01CF010895F2
:100B50002FD008F481E0089557D088F09F5790F087
:100B6000B92F9927B751A0F0D1F0660F771F881FD2
:100B7000991F1AF0BA95C9F712C0B13081F05ED052
:100B8000B1E008955BC0672F782F8827B85F39F0F0
:100B9000B93FCCF3869577956795B395D9F73EF431
:100BA00090958095709561957F4F8F4F9F4F0895D9
:100BB000990F0008550FAA0BE0E8FEEF161617066E
:100BC000E807F907C0F012161306E407F50798F0D6
:100BD000621B730B840B950B39F40A2661F0232BEF
:100BE000242B252B21F408950A2609F4A140A6956B
:100BF0008FEF811D811D089557FD9058440F551F9B
:100C000059F05F3F71F04795880F97FB991F61F08E
:100C10009F3F79F087950895121613061406551F05
:100C2000F2CF4695F1DF08C0161617061806991F71
:100C3000F1CF86957105610508940895E894BB2766
:100C400066277727CB0197F90895B2DF08F48FEF75
:100C500008950BD078C069D028F06ED018F0952395
:100C600009F05AC05FC01124EACFC6DFA0F3959FF8
:100C7000D1F3950F50E0551F629FF001729FBB2783
:100C8000F00DB11D639FAA27F00DB11DAA1F649F2F
:100C90006627B00DA11D661F829F2227B00DA11DE2
:100CA000621F739FB00DA11D621F839FA00D611D68
:100CB000221F749F3327A00D611D231F849F600D89
:100CC000211D822F762F6A2F11249F5750408AF0C2
:100CD000E1F088234AF0EE0FFF1FBB1F661F771F4E
:100CE000881F91505040A9F79E3F510570F014C0E5
:100CF000A6CF5F3FECF3983EDCF38695779567953A
:100D0000B795F795E7959F5FC1F7FE2B880F911D6B
:100D10009695879597F9089597F99F6780E870E011
:100D200060E008959FEF80EC089500240A94161661
:100D3000170618060906089500240A9412161306C9
:100D4000140605060895092E0394000C11F4882357
:100D500052F0BB0F40F4BF2B11F460FF04C06F5F73
:100D60007F4F8F4F9F4F0895CF93DF93CDB7DEB75F
:100D7000AE01475F5F4F6F8178858D819E810E94B4
:100D80000607DF91CF9108958F929F92AF92BF9205
:100D9000CF92DF92EF92FF920F931F93CF93DF9347
:100DA0006B014A017901D90113962C9121FF1DC0D5
:100DB000C0E0D0E0C815D905D9F08C015C01AC0CBD
:100DC000BD1CC8010A151B0571F00F5F1F4FD7012D
:100DD0001896ED91FC911997B701DC018C9109955A
:100DE000892B79F305C02196E5CF80E090E001C022
:100DF000CE01DF91CF911F910F91FF90EF90DF9087
:100E0000CF90BF90AF909F908F9008952F923F9278
:100E10004F925F926F927F928F929F92AF92BF920A
:100E2000CF92DF92EF92FF920F931F93CF93DF93B6
:100E3000CDB7DEB72C970FB6F894DEBF0FBECDBF8F
:100E40007C016B018A01FC0117821682838181FF7C
:100E5000BDC1CE0101964C01F7019381F60193FDCE
:100E6000859193FF81916F01882309F4ABC185328D
:100E700039F493FD859193FF81916F01853229F4B7
:100E8000B70190E00E941709E7CF512C312C20E0E8
:100E90002032A0F48B3269F030F4803259F0833282
:100EA00069F420612CC08D3239F0803339F421602F
:100EB00026C02260246023C0286021C027FD27C0EF
:100EC00030ED380F3A3078F426FF06C0FAE05F9E26
:100ED000300D1124532E13C08AE0389E300D11249A
:100EE000332E20620CC08E3221F426FD6BC12064AB
:100EF00006C08C3611F4206802C0883641F4F60131
:100F000093FD859193FF81916F018111C1CF982F3E
:100F10009F7D9554933028F40C5F1F4FFFE3F983B6
:100F20000DC0833631F0833771F0833509F05BC033
:100F300022C0F801808189830E5F1F4F44244394AF
:100F4000512C540115C03801F2E06F0E711CF801EC
:100F5000A080B18026FF03C0652D70E002C06FEF56
:100F60007FEFC5012C870E940C092C0183012C8581
:100F70002F77222E17C03801F2E06F0E711CF80196
:100F8000A080B18026FF03C0652D70E002C06FEF26
:100F90007FEFC5012C870E9401092C012C85206858
:100FA000222E830123FC1BC0832D90E04816590696
:100FB000B0F4B70180E290E00E9417093A94F4CFB0
:100FC000F50127FC859127FE81915F01B70190E033
:100FD0000E94170931103A94F1E04F1A5108411458
:100FE000510471F7E5C0843611F0893639F5F801FE
:100FF00027FF07C060817181828193810C5F1F4F41
:1010000008C060817181882777FD8095982F0E5FD9
:101010001F4F2F76B22E97FF09C09095809570953F
:1010200061957F4F8F4F9F4F2068B22E2AE030E0AE
:10103000A4010E944909A82EA81844C0853729F4A4
:101040002F7EB22E2AE030E025C0F22FF97FBF2E8E
:101050008F36C1F018F4883579F0B4C0803719F0B4
:10106000883721F0AFC02F2F2061B22EB4FE0DC003
:101070008B2D8460B82E09C024FF0AC09F2F966074
:10108000B92E06C028E030E005C020E130E002C003
:1010900020E132E0F801B7FE07C0608171818281F2
:1010A00093810C5F1F4F06C06081718180E090E0EA
:1010B0000E5F1F4FA4010E944909A82EA818FB2DFE
:1010C000FF77BF2EB6FE0BC02B2D2E7FA51450F43C
:1010D000B4FE0AC0B2FC08C02B2D2E7E05C07A2CAF
:1010E0002B2D03C07A2C01C0752C24FF0DC0FE01EE
:1010F000EA0DF11D8081803311F4297E09C022FFA1
:1011000006C07394739404C0822F867809F0739498
:1011100023FD13C020FF06C05A2C731418F4530C7F
:101120005718732C731468F4B70180E290E02C8791
:101130000E94170973942C85F5CF731410F4371897
:1011400001C0312C24FF12C0B70180E390E02C874E
:101150000E9417092C8522FF17C021FF03C088E5D4
:1011600090E002C088E790E0B7010CC0822F86783B
:1011700059F021FD02C080E201C08BE227FD8DE223
:10118000B70190E00E941709A51438F4B70180E375
:1011900090E00E9417095A94F7CFAA94F401EA0D3F
:1011A000F11D8081B70190E00E941709A110F5CFD1
:1011B000332009F451CEB70180E290E00E94170974
:1011C0003A94F6CFF7018681978102C08FEF9FEFA7
:1011D0002C960FB6F894DEBF0FBECDBFDF91CF9136
:1011E0001F910F91FF90EF90DF90CF90BF90AF9045
:1011F0009F908F907F906F905F904F903F902F9037
:101200000895FC010590615070400110D8F7809559
:1012100090958E0F9F1F0895FC01615070400190C2
:101220000110D8F7809590958E0F9F1F08950F930A
:101230001F93CF93DF93182F092FEB018B8181FD33
:1012400003C08FEF9FEF20C082FF10C04E815F81EF
:101250002C813D81421753077CF4E881F9819F017D
:101260002F5F3F4F39832883108306C0E885F985B7
:10127000812F0995892B29F72E813F812F5F3F4FC1
:101280003F832E83812F902FDF91CF911F910F915C
:101290000895FA01AA27283051F1203181F1E8940C
:1012A0006F936E7F6E5F7F4F8F4F9F4FAF4FB1E059
:1012B0003ED0B4E03CD0670F781F891F9A1FA11D54
:1012C000680F791F8A1F911DA11D6A0F711D811D55
:1012D000911DA11D20D009F468943F912AE0269F1A
:1012E00011243019305D3193DEF6CF010895462F79
:1012F0004770405D4193B3E00FD0C9F7F6CF462F5A
:101300004F70405D4A3318F0495D31FD40524193C2
:1013100002D0A9F7EACFB4E0A6959795879577957F
:101320006795BA95C9F700976105710508959B0106
:10133000AC010A2E06945795479537952795BA958F
:10134000C9F7620F731F841F951FA01D0895F8949D
:02135000FFCFCD
:101352000C0A1A0A53544152540A0053544152542B
:1013620000474F00574149540053544F50002573D2
:101372000A00000000000000003E4551453E003ECC
:101382006B6F6B3E001C3E7C3E1C00183C7E3C1882
:101392000030367F363000185C7E5C18000000009A
:1013A200000000000000000000000000000000003B
:1013B200000000000030484A360E0006297929064E
:1013C20000000000000000607E0A353F002A1C3643
:1013D2001C2A00007F3E1C0800081C3E7F000014EF
:1013E200367F361400005F005F000006097F017F30
:1013F20000224D5559220060606060000014B6FF63
:10140200B6140004067F06040010307F3010000876
:10141200083E1C0800081C3E080800784040404076
:1014220000083E083E0800303C3F3C3000030F3FBE
:101432000F030000000000000000065F0600000726
:101442000300070300247E247E2400242B6A12005A
:1014520000631308646300364956205000000703F6
:10146200000000003E4100000000413E0000000874
:101472003E1C3E080008083E08080000E06000002C
:10148200000808080808000060600000002010083A
:101492000402003E5149453E0000427F4000006286
:1014A20051494946002249494936001814127F1011
:1014B200002F49494931003C4A494930000171092C
:1014C200050300364949493600064949291E0000EC
:1014D2006C6C00000000EC6C00000008142241005B
:1014E200002424242424000041221408000201596B
:1014F2000906003E415D551E007E1111117E007FDE
:1015020049494936003E41414122007F4141413E25
:10151200007F49494941007F09090901003E4149CB
:10152200497A007F0808087F0000417F41000030AF
:101532004040403F007F08142241007F404040402D
:10154200007F0204027F007F0204087F003E4141C7
:10155200413E007F09090906003E4151215E007F9C
:10156200090919660026494949320001017F010132
:10157200003F4040403F001F2040201F003F403CB2
:10158200403F0063140814630007087008070071E5
:101592004945430000007F41410000020408102039
:1015A200000041417F00000402010204808080802B
:1015B2008080000003070000002054545478007F0C
:1015C2004444443800384444442800384444447F66
:1015D20000385454540800087E0909000018A4A4D5
:1015E200A47C007F040478000000007D40000040DD
:1015F20080847D00007F102844000000007F4000AE
:10160200007C04180478007C040478000038444408
:10161200443800FC444444380038444444FC004408
:101622007844040800085454542000043E44240022
:10163200003C40207C00001C2040201C003C60300C
:10164200603C006C10106C00009CA0603C000064C8
:1016520054544C0000083E41410000000077000055
:10166200000041413E08000201020100003C262325
:10167200263C001EA1E12112003D40207D000038E1
:101682005454550900205555557800205554557825
:10169200002055555478002057555778001CA2E277
:1016A200221400385555550800385554550800384D
:1016B200555554080000017C41000000017D4100A5
:1016C2000000017C400000702924297000782F2539
:1016D2002F78007C545455450034547C5458007E75
:1016E200097F4949003845453900003845443900E9
:1016F200003945443800003C41217D00003D412035
:101702007C00009CA1603D00003D42423D00003C47
:1017120041403D0080706858380400483E494962A3
:10172200007E615D433F0022140814220040887E3F
:1017320009020020545555780000007D4100003810
:1017420044453900003C40217D00007A090A7100BD
:10175200007A1122790000085555555E004E51510C
:101762004E000030484D40203E415D4B553E040442
:101772000404041C0017084C6A50001708342A7825
:101782000000307D30000008140008140014080026
:101792001408441144114411AA55AA55AA55BBEE86
:1017A200BBEEBBEE000000FF0000080808FF0000CF
:1017B20000702825297000702925297000702925BC
:1017C20028703E415D55413E0AFB00FF000000FFCC
:1017D20000FF00000AFA02FE00000A0B080F0000D8
:1017E20000182466240000292A7C2A29080808F8FF
:1017F20000000000000F08080808080F0808080881
:1018020008F80808000000FF080808080808080887
:10181200080808FF080800205655567900702A2546
:101822002A71000F080B0A0A00FE02FA0A0A0A0BC2
:10183200080B0A0A0AFA02FA0A0A00FF00FB0A0A5D
:101842000A0A0A0A0A0A0AFB00FB0A0A005D2222A5
:10185200225D00225559300000087F49413E007C3C
:1018620055555544007C55545544007C55555444B7
:101872000000000700000000447D45000000457D97
:1018820045000000457C45000808080F00000000E4
:1018920000F80808FFFFFFFFFFFFF0F0F0F0F0F0A4
:1018A2000000007700000000457D44000F0F0F0F7D
:1018B2000F0F003C42433D0000FE4A4A3400003C08
:1018C20043433D00003D43423C000032494A31005F
:1018D200003A4546390000FC20201C0000FEAA28E0
:1018E200100000FFA5241800003C40413D00003CD0
:1018F20041413D00003D41403C00009CA0613D0053
:10190200000408710904000002020200000007033B
:1019120000000000080808000000242E2400002413
:101922002424242405170A342A780006097F017F1B
:1019320000224D5559220008082A080800000818FC
:10194200180000060909060000000800080000004F
:101952000800000000020F00000000090F0500004F
:1019620000090D0A0000003C3C3C3C000000000065
:02197200000073
:00000001FF
