:100000000C9490000C94AF000C94AF000C94AF00D3
:100010000C94AF000C94AF000C94AF000C94AF00A4
:100020000C94AF000C94FD010C94AF000C94AF0045
:100030000C94AF000C94EA040C94AF000C94AF0045
:100040000C94AF000C94B4040C94AF000C94AF006B
:100050000C94AF000C94AF000C94AF000C94AF0064
:100060000C94AF000C94AF000C94AF000C94AF0054
:100070000C94AF000C94AF000C94AF000C94AF0044
:100080000C94AF000C94AF000C94AF000C94AF0034
:100090000C94AF000C94AF000C94AF000C94AF0024
:1000A0000C94AF000C94AF000C94AF000C94AF0014
:1000B0000C94AF000C94AF000C94AF000C94AF0004
:1000C0000C94AF000C94AF000C94AF000C94AF00F4
:1000D0000C94AF000C94AF000C94AF000C94AF00E4
:1000E0000C94AF000C94AF000C94AF000C94AF00D4
:1000F0000C94AF000C94AF000C94AF000C94AF00C4
:100100000C94AF000C94AF000C94AF000C94AF00B3
:100110000C94AF000C94AF000C94AF000C94AF00A3
:1001200011241FBECFEFD1E4DEBFCDBF18E0A0E0A9
:10013000B2E0E0E7F2E100E00BBF02C007900D92F1
:10014000A831B107D9F718E0A8E1B8E001C01D92C5
:10015000AE34B107E1F70E9440010C9436090C94CB
:100160000000CF93DF93CDB7DEB780911808909150
:10017000190801969093190880931808809118081F
:1001800090911908883E23E0920781F50E946A0346
:10019000109219081092180880911A0890911B0863
:1001A000019690931B0880931A0860E080E00E94FB
:1001B000A10520911A0830911B08809102029091AC
:1001C0000302432F4F932F9324E032E0232F2F93EA
:1001D00024E032E02F93292F2F938F930E948506DE
:1001E0000F900F900F900F900F900F90DF91CF9185
:1001F0000895CF93DF93CDB7DEB780911C0890911F
:100200001D08019690931D0880931C0880911C087E
:1002100090911D08883C910581F50E942903109258
:100220001D0810921C0880911E0890911F080196CD
:1002300090931F0880931E0861E080E00E94A10552
:1002400020911E0830911F088091020290910302B4
:10025000432F4F932F932EE032E0232F2F932EE046
:1002600032E02F93292F2F938F930E9485060F90B2
:100270000F900F900F900F900F90DF91CF910895F6
:10028000CF93DF93CDB7DEB70E9419030E949B0383
:100290000E945A0381E00E946F010E944A030E945B
:1002A000CC030E9401060E94EE030E948B0360E0D3
:1002B00071EE80E090E00E9420050E9419030E94E8
:1002C00057048BEA93E00E945D0289E293E00E946A
:1002D0006F0281EB90E00E94DC037894FFCFCF9314
:1002E000DF931F92CDB7DEB7898384E290E024E2EA
:1002F00030E0F90120812F7BFC01208384E290E033
:1003000024E230E0F90120812F77FC01208385E28F
:1003100090E025E230E0F90120812064FC01208397
:1003200085E290E025E230E0F90120812068FC01BF
:1003300020838981882381F081E892E00E9445042E
:100340000E94570488E690E028E630E0F901208119
:100350002E7FFC0120831BC088E690E028E630E079
:10036000F90120812160FC0120838BE690E02BE6DF
:1003700030E0F90120812064FC0120838BE690E0CD
:100380002BE630E0F90120812068FC0120830F90EA
:10039000DF91CF910895CF93DF931F92CDB7DEB752
:1003A00083E290E0FC0180818095881F8827881F68
:1003B000898381E09981992309F480E00F90DF918E
:1003C000CF910895CF93DF931F92CDB7DEB783E22D
:1003D00090E0FC018081882F90E08074992721E0D3
:1003E000009709F020E0298381E09981992309F49D
:1003F00080E00F90DF91CF9108951F920F920090AF
:100400005F000F92112400905B000F922F933F9397
:100410004F935F936F937F938F939F93AF93BF930C
:10042000EF93FF93CF93DF93CDB7DEB70E94CB015D
:100430008823B1F08091200890912108009781F0E5
:100440008BE690E0FC018081882F90E080749927F2
:10045000009731F08091220890912308FC010995C2
:100460000E94E201882391F0809122089091230854
:10047000009761F08BE690E0FC018081882334F4E2
:100480008091200890912108FC010995DF91CF917E
:10049000FF91EF91BF91AF919F918F917F916F915C
:1004A0005F914F913F912F910F9000925B000F90C1
:1004B00000925F000F901F901895CF93DF9300D0AC
:1004C000CDB7DEB79A83898389819A819093210879
:1004D000809320080F900F90DF91CF910895CF93D4
:1004E000DF9300D0CDB7DEB79A83898389819A8163
:1004F00090932308809322080F900F90DF91CF9163
:100500000895CF93DF9300D000D0CDB7DEB78091B0
:1005100024088B831C8280912508882F90E08A5DB7
:10052000974FFC0110820E94CB01882389F08091B3
:100530002508882F90E020912508222F30E02A5DA1
:10054000374FF901208121608A5D974FFC0120839C
:100550000E94E201882389F080912508882F90E08D
:1005600020912508222F30E02A5D374FF9012081A4
:1005700022608A5D974FFC012083809125088F5F60
:100580008093250880912508853011F41092250864
:100590008FEF89831A820DC08A81882F90E08A5D4F
:1005A000974FFC0180819981892389838A818F5F9C
:1005B0008A838A81853080F3898180932408909191
:1005C00024088B8189278C838C81882F90E081700F
:1005D0009927009781F00E94CB01882361F08091D8
:1005E000220890912308009731F080912208909181
:1005F0002308FC0109958C81882F90E0827099274F
:10060000009781F00E94E201882361F08091200828
:1006100090912108009731F0809120089091210855
:10062000FC0109950F900F900F900F90DF91CF91E3
:100630000895CF93DF93CDB7DEB783E390E023E354
:1006400030E0F90120812260FC012083DF91CF910D
:100650000895CF93DF93CDB7DEB784E390E024E332
:1006600030E0F901308122E02327FC012083DF9173
:10067000CF910895CF93DF93CDB7DEB784E390E0B9
:1006800024E330E0F90120812D7FFC012083DF91FC
:10069000CF910895CF93DF93CDB7DEB784E390E099
:1006A00024E330E0F90120812260FC012083DF9106
:1006B000CF910895CF93DF93CDB7DEB780E390E07D
:1006C00020E330E0F90120812068FC012083DF91E4
:1006D000CF910895CF93DF93CDB7DEB781E390E05C
:1006E00021E330E0F901308120E82327FC01208359
:1006F000DF91CF910895CF93DF93CDB7DEB781E33C
:1007000090E021E330E0F90120812F77FC01208384
:10071000DF91CF910895CF93DF93CDB7DEB781E31B
:1007200090E021E330E0F90120812068FC01208382
:10073000DF91CF910895CF93DF93CDB7DEB780E3FC
:1007400090E020E330E0F90120812064FC01208367
:10075000DF91CF910895CF93DF93CDB7DEB781E3DB
:1007600090E021E330E0F901308120E42327FC010F
:100770002083DF91CF910895CF93DF93CDB7DEB77C
:1007800081E390E021E330E0F90120812F7BFC013F
:100790002083DF91CF910895CF93DF93CDB7DEB75C
:1007A00081E390E021E330E0F90120812064FC0145
:1007B0002083DF91CF910895CF93DF9300D0CDB701
:1007C000DEB79A83898389819A8190932C088093DC
:1007D0002B080F900F90DF91CF910895CF93DF9367
:1007E000CDB7DEB780EB90E020EB30E0F90120815F
:1007F0002260FC01208380EB90E020EB30E0F901E7
:1008000020812E7FFC01208381EB90E021EB30E002
:10081000F90120812E7FFC01208381EB90E021EB08
:1008200030E0F90120812D7FFC01208381EB90E0F5
:1008300021EB30E0F90120812460FC01208380E776
:1008400090E020E730E0F90120812260FC01208364
:1008500087E390E027E330E0F90120812D7FFC0160
:10086000208383EB90E029EFFC012083DF91CF917F
:100870000895CF93DF93CDB7DEB781EB90E02EEFF5
:10088000FC012083DF91CF910895CF93DF9300D0B7
:10089000CDB7DEB79A83898389819A8190932E0898
:1008A00080932D080F900F90DF91CF910895CF93F3
:1008B000DF93CDB7DEB781E890E021E830E0F901C1
:1008C00020812860FC01208381E890E021E830E06D
:1008D000F90120812160FC01208381E890E021E87A
:1008E00030E0F90120812260FC0120838FE690E056
:1008F0002FE630E0F90120812260FC01208386E3AD
:1009000090E026E330E0F90120812260FC012083A1
:1009100088E890E021EE34E0FC0131832083DF9110
:10092000CF910895CF93DF93CDB7DEB781E890E004
:1009300021E830E0F90120812E7FFC01208381E84D
:1009400090E021E830E0F90120812D7FFC01208337
:1009500081E890E021E830E0F9012081277FFC0167
:100960002083DF91CF9108951F920F9200905F0036
:100970000F92112400905B000F922F933F934F939F
:100980005F936F937F938F939F93AF93BF93EF93F7
:10099000FF93CF93DF93CDB7DEB780912D08909171
:1009A0002E08FC010995DF91CF91FF91EF91BF9146
:1009B000AF919F918F917F916F915F914F913F91F7
:1009C0002F910F9000925B000F9000925F000F90AC
:1009D0001F9018951F920F9200905F000F921124A4
:1009E00000905B000F922F933F934F935F936F9311
:1009F0007F938F939F93AF93BF93EF93FF93CF9387
:100A0000DF93CDB7DEB780912B0890912C08FC01C5
:100A10000995DF91CF91FF91EF91BF91AF919F9198
:100A20008F917F916F915F914F913F912F910F9097
:100A300000925B000F9000925F000F901F9018953E
:100A40000F931F938B019C0180913D08811138C049
:100A500081E080933D08C901B801775F824C9F4FC8
:100A600042E0660F771F881F991F4A95D1F7A901A9
:100A70009801E3E0220F331F441F551FEA95D1F779
:100A80000E946306215031093093CD002093CC00A1
:100A900022E02093C80086E08093CA0088E180931A
:100AA000C9008EE0EFE2F8E0DF011D928A95E9F7D8
:100AB00081E795E0909338088093370820933208B7
:100AC0001F910F9108958091C80087FFFCCF8091FE
:100AD000CE0008959091C80095FFFCCF8093CE0082
:100AE00008950E946A0580E090E008950E945906EA
:100AF00087FDFCCF08951F93CF93DF93182FC62F48
:100B0000D42F6D3340F081E00E9450060E9476059C
:100B100083EC8C0F06C080E00E9450060E94760590
:100B20008C2F0E9446060E947605812F886B0E94BA
:100B300046060E9476058D2FDF91CF911F910C9470
:100B40003B0680933F0860933E0808950F931F93E0
:100B5000CF93DF9390913E088A3031F410923F0892
:100B60009F5F90933E0831C020913F08243129F4C3
:100B700010923F089F5F90933E0890913E089430FA
:100B800020F596E0899F80011124C0E0D0E0085E46
:100B90001D4FF801EC0FFD1F408180913F08682F29
:100BA000660F680F660F6C0F80913E086A3720F45D
:100BB000843010F40E947B052196C630D10549F798
:100BC00080913F088F5F80933F08DF91CF911F9105
:100BD0000F9108950E94A60580E090E00895CF93BC
:100BE000DF93D0E0C0E040E06C2F8D2F0E947B05AA
:100BF000CF5FCA37C1F7DF5FD430A1F7DF91CF9164
:100C000008950E94340680E00E9450060E947605F6
:100C100082EE0E9446060E9476058FEA0E944606F2
:100C200081E00E9450060E94760582EE0E944606F0
:100C30000E9476058FEA0E9446060E94EF051092F8
:100C40003F0810923E088EE0E0E4F8E0DF011D92DC
:100C50008A95E9F78AEE95E09093490880934808D1
:100C600082E0809343080895549A559A5D9A579A62
:100C70005F9A569A08955E9A9FEF9DB98EB95D98D6
:100C80000000000000005D9A5E9808955E989FEF56
:100C90009DB98EB95D980000000000005D9A08952E
:100CA0002BB130E1839FC00111242F7E282B2BB95B
:100CB00008955E981DB81EB85F98000000000000FF
:100CC0008CB15F9A0895A1E21A2EAA1BBB1BFD01ED
:100CD0000DC0AA1FBB1FEE1FFF1FA217B307E4071B
:100CE000F50720F0A21BB30BE40BF50B661F771F73
:100CF000881F991F1A9469F7609570958095909553
:100D00009B01AC01BD01CF010895CF93DF93CDB717
:100D1000DEB7AE01475F5F4F6F8178858D819E8121
:100D20000E949506DF91CF9108952F923F924F92A6
:100D30005F926F927F928F929F92AF92BF92CF926B
:100D4000DF92EF92FF920F931F93CF93DF93CDB774
:100D5000DEB72C970FB6F894DEBF0FBECDBF7C0177
:100D60006B018A01FC0117821682838181FFBDC15C
:100D7000CE0101964C01F7019381F60193FD859117
:100D800093FF81916F01882309F4ABC1853239F457
:100D900093FD859193FF81916F01853229F4B7010D
:100DA00090E00E94A608E7CF512C312C20E02032A1
:100DB000A0F48B3269F030F4803259F0833269F458
:100DC00020612CC08D3239F0803339F4216026C087
:100DD0002260246023C0286021C027FD27C030ED99
:100DE000380F3A3078F426FF06C0FAE05F9E300DE7
:100DF0001124532E13C08AE0389E300D1124332E57
:100E000020620CC08E3221F426FD6BC1206406C026
:100E10008C3611F4206802C0883641F4F60193FD47
:100E2000859193FF81916F018111C1CF982F9F7D93
:100E30009554933028F40C5F1F4FFFE3F9830DC0E6
:100E4000833631F0833771F0833509F05BC022C0FF
:100E5000F801808189830E5F1F4F44244394512CF5
:100E6000540115C03801F2E06F0E711CF801A0802A
:100E7000B18026FF03C0652D70E002C06FEF7FEFE9
:100E8000C5012C870E949B082C0183012C852F779C
:100E9000222E17C03801F2E06F0E711CF801A080FD
:100EA000B18026FF03C0652D70E002C06FEF7FEFB9
:100EB000C5012C870E9490082C012C852068222EC9
:100EC000830123FC1BC0832D90E048165906B0F423
:100ED000B70180E290E00E94A6083A94F4CFF501B1
:100EE00027FC859127FE81915F01B70190E00E9468
:100EF000A60831103A94F1E04F1A510841145104F8
:100F000071F7E5C0843611F0893639F5F80127FF0D
:100F100007C060817181828193810C5F1F4F08C07F
:100F200060817181882777FD8095982F0E5F1F4F14
:100F30002F76B22E97FF09C0909580957095619598
:100F40007F4F8F4F9F4F2068B22E2AE030E0A401E0
:100F50000E94D808A82EA81844C0853729F42F7EEF
:100F6000B22E2AE030E025C0F22FF97FBF2E8F3657
:100F7000C1F018F4883579F0B4C0803719F088379B
:100F800021F0AFC02F2F2061B22EB4FE0DC08B2DEB
:100F90008460B82E09C024FF0AC09F2F9660B92E26
:100FA00006C028E030E005C020E130E002C020E1CA
:100FB00032E0F801B7FE07C06081718182819381C0
:100FC0000C5F1F4F06C06081718180E090E00E5F72
:100FD0001F4FA4010E94D808A82EA818FB2DFF7748
:100FE000BF2EB6FE0BC02B2D2E7FA51450F4B4FEE1
:100FF0000AC0B2FC08C02B2D2E7E05C07A2C2B2DEA
:1010000003C07A2C01C0752C24FF0DC0FE01EA0D2F
:10101000F11D8081803311F4297E09C022FF06C0B2
:101020007394739404C0822F867809F0739423FD1F
:1010300013C020FF06C05A2C731418F4530C571811
:10104000732C731468F4B70180E290E02C870E943F
:10105000A60873942C85F5CF731410F4371801C0CB
:10106000312C24FF12C0B70180E390E02C870E944E
:10107000A6082C8522FF17C021FF03C088E590E059
:1010800002C088E790E0B7010CC0822F867859F043
:1010900021FD02C080E201C08BE227FD8DE2B70195
:1010A00090E00E94A608A51438F4B70180E390E010
:1010B0000E94A6085A94F7CFAA94F401EA0DF11DF4
:1010C0008081B70190E00E94A608A110F5CF3320DF
:1010D00009F451CEB70180E290E00E94A6083A944C
:1010E000F6CFF7018681978102C08FEF9FEF2C9694
:1010F0000FB6F894DEBF0FBECDBFDF91CF911F9129
:101100000F91FF90EF90DF90CF90BF90AF909F90A6
:101110008F907F906F905F904F903F902F900895A9
:10112000FC010590615070400110D8F780959095B2
:101130008E0F9F1F0895FC016150704001900110B7
:10114000D8F7809590958E0F9F1F08950F931F934A
:10115000CF93DF93182F092FEB018B8181FD03C003
:101160008FEF9FEF20C082FF10C04E815F812C81E6
:101170003D81421753077CF4E881F9819F012F5F7D
:101180003F4F39832883108306C0E885F985812F76
:101190000995892B29F72E813F812F5F3F4F3F8390
:1011A0002E83812F902FDF91CF911F910F91089562
:1011B000FA01AA27283051F1203181F1E8946F9388
:1011C0006E7F6E5F7F4F8F4F9F4FAF4FB1E03ED02E
:1011D000B4E03CD0670F781F891F9A1FA11D680FCC
:1011E000791F8A1F911DA11D6A0F711D811D911DFF
:1011F000A11D20D009F468943F912AE0269F112474
:101200003019305D3193DEF6CF010895462F4770D7
:10121000405D4193B3E00FD0C9F7F6CF462F4F7032
:10122000405D4A3318F0495D31FD4052419302D090
:10123000A9F7EACFB4E0A695979587957795679536
:10124000BA95C9F700976105710508959B01AC0136
:101250000A2E06945795479537952795BA95C9F75D
:10126000620F731F841F951FA01D0895F894FFCF70
:101270002F08400854494D45322025347500544903
:101280004D45312025347500000000000000003E6F
:101290004551453E003E6B6F6B3E001C3E7C3E1C44
:1012A00000183C7E3C180030367F363000185C7EDB
:1012B0005C180000000000000000000000000000BA
:1012C000000000000000000000000030484A360E18
:1012D00000062979290600000000000000607E0A4F
:1012E000353F002A1C361C2A00007F3E1C080008DF
:1012F0001C3E7F000014367F361400005F005F0044
:101300000006097F017F00224D5559220060606070
:1013100060000014B6FFB6140004067F0604001037
:10132000307F30100008083E1C0800081C3E0808EA
:1013300000784040404000083E083E0800303C3FF6
:101340003C3000030F3F0F030000000000000000CE
:10135000065F060000070300070300247E247E24A6
:1013600000242B6A12000063130864630036495698
:10137000205000000703000000003E410000000074
:10138000413E000000083E1C3E080008083E0808D8
:101390000000E06000000008080808080000606025
:1013A0000000002010080402003E5149453E0000A4
:1013B000427F40000062514949460022494949366E
:1013C000001814127F10002F49494931003C4A4946
:1013D00049300001710905030036494949360006C4
:1013E0004949291E00006C6C00000000EC6C0000F4
:1013F0000008142241000024242424240000412257
:101400001408000201590906003E415D551E007E88
:101410001111117E007F49494936003E4141412268
:10142000007F4141413E007F49494941007F090910
:101430000901003E4149497A007F0808087F000001
:10144000417F410000304040403F007F081422416E
:10145000007F40404040007F0204027F007F020482
:10146000087F003E4141413E007F09090906003ED8
:101470004151215E007F0909196600264949493218
:101480000001017F0101003F4040403F001F20401C
:10149000201F003F403C403F0063140814630007D6
:1014A0000870080700714945430000007F41410072
:1014B000000204081020000041417F0000040201E6
:1014C00002048080808080800000030700000020EC
:1014D00054545478007F44444438003844444428E9
:1014E00000384444447F00385454540800087E09AE
:1014F00009000018A4A4A47C007F04047800000064
:10150000007D4000004080847D00007F1028440062
:101510000000007F4000007C04180478007C040474
:10152000780000384444443800FC444444380038CF
:10153000444444FC004478440408000854545420B3
:1015400000043E442400003C40207C00001C20405D
:10155000201C003C6030603C006C10106C00009C53
:10156000A0603C00006454544C0000083E4141001F
:10157000000000770000000041413E080002010227
:101580000100003C2623263C001EA1E12112003D63
:1015900040207D0000385454550900205555557899
:1015A0000020555455780020555554780020575543
:1015B0005778001CA2E2221400385555550800380F
:1015C000555455080038555554080000017C410019
:1015D0000000017D41000000017C400000702924D2
:1015E000297000782F252F78007C545455450034FD
:1015F000547C5458007E097F4949003845453900DC
:10160000003845443900003945443800003C412148
:101610007D00003D41207C00009CA1603D00003D1C
:1016200042423D00003C41403D0080706858380413
:1016300000483E494962007E615D433F0022140834
:1016400014220040887E090200205455557800007D
:10165000007D4100003844453900003C40217D00B8
:10166000007A090A7100007A1122790000085555A4
:10167000555E004E51514E000030484D40203E41D5
:101680005D4B553E04040404041C0017084C6A50CA
:10169000001708342A780000307D3000000814005C
:1016A0000814001408001408441144114411AA55E8
:1016B000AA55AA55BBEEBBEEBBEE000000FF000032
:1016C000080808FF000000702825297000702925EF
:1016D00029700070292528703E415D55413E0AFB66
:1016E00000FF000000FF00FF00000AFA02FE0000F9
:1016F0000A0B080F000000182466240000292A7C29
:101700002A29080808F800000000000F0808080847
:10171000080F0808080808F80808000000FF080873
:10172000080808080808080808FF08080020565597
:10173000567900702A252A71000F080B0A0A00FE4C
:1017400002FA0A0A0A0B080B0A0A0AFA02FA0A0A39
:1017500000FF00FB0A0A0A0A0A0A0A0A0AFB00FB3F
:101760000A0A005D2222225D00225559300000083D
:101770007F49413E007C55555544007C55545544A5
:10178000007C555554440000000700000000447DD3
:1017900045000000457D45000000457C45000808E7
:1017A000080F0000000000F80808FFFFFFFFFFFF20
:1017B000F0F0F0F0F0F00000007700000000457D50
:1017C00044000F0F0F0F0F0F003C42433D0000FE7F
:1017D0004A4A3400003C43433D00003D43423C0044
:1017E0000032494A3100003A4546390000FC2020C9
:1017F0001C0000FEAA28100000FFA5241800003CD1
:1018000040413D00003C41413D00003D41403C0025
:10181000009CA0613D000004087109040000020260
:101820000200000007030000000008080800000094
:10183000242E240000242424242405170A342A7882
:101840000006097F017F00224D5559220008082A11
:101850000808000008181800000609090600000022
:101860000800080000000800000000020F0000004F
:1018700000090F05000000090D0A0000003C3C3C77
:081880003C0000000000000024
:00000001FF
